S019000056656869636C655F73706565645F6563752E737265633F
S11300000C942A000C9447000C9447000C9447006D
S11300100C9447000C9447000C9447000C94470040
S11300200C9447000C9447000C9447000C94470030
S11300300C9447000C9447000C9447000C94470020
S11300400C944C000C9447000C9447000C9447000B
S11300500C94470011241FBECFE5D8E0DEBFCDBF0E
S113006010E0A0E6B0E0EAEEF0E002C005900D92E8
S1130070A036B107D9F720E0A0E6B0E001C01D9298
S1130080A436B207E1F70E9449000C9473000C9463
S1130090000080E090E008951F920F920FB60F9237
S11300A011242F933F938F939F93EF93FF9324B146
S11300B030E0E0E6F0E03383228385B1982F93703B
S11300C0892F90E0982F8827820F931F9383828330
S11300D0FF91EF919F918F913F912F910F900FBEC0
S10D00E00F901F901895F894FFCFBD
S9030000FC
